{
  "contractName": "Escrow",
  "abi": [
    {
      "constant": true,
      "inputs": [],
      "name": "seller",
      "outputs": [
        {
          "name": "",
          "type": "address"
        }
      ],
      "payable": false,
      "stateMutability": "view",
      "type": "function"
    },
    {
      "constant": true,
      "inputs": [],
      "name": "buyerOk",
      "outputs": [
        {
          "name": "",
          "type": "uint256"
        }
      ],
      "payable": false,
      "stateMutability": "view",
      "type": "function"
    },
    {
      "constant": true,
      "inputs": [],
      "name": "buyer",
      "outputs": [
        {
          "name": "",
          "type": "address"
        }
      ],
      "payable": false,
      "stateMutability": "view",
      "type": "function"
    },
    {
      "constant": true,
      "inputs": [],
      "name": "sellerOk",
      "outputs": [
        {
          "name": "",
          "type": "uint256"
        }
      ],
      "payable": false,
      "stateMutability": "view",
      "type": "function"
    },
    {
      "constant": true,
      "inputs": [],
      "name": "createdAt",
      "outputs": [
        {
          "name": "",
          "type": "uint256"
        }
      ],
      "payable": false,
      "stateMutability": "view",
      "type": "function"
    },
    {
      "inputs": [
        {
          "name": "_seller",
          "type": "address"
        }
      ],
      "payable": true,
      "stateMutability": "payable",
      "type": "constructor"
    },
    {
      "constant": false,
      "inputs": [],
      "name": "accept",
      "outputs": [],
      "payable": false,
      "stateMutability": "nonpayable",
      "type": "function"
    },
    {
      "constant": false,
      "inputs": [],
      "name": "reject",
      "outputs": [],
      "payable": false,
      "stateMutability": "nonpayable",
      "type": "function"
    }
  ],
  "bytecode": "0x606060405260405160208061049a833981016040528080519060200190919050504260008190555033600160006101000a81548173ffffffffffffffffffffffffffffffffffffffff021916908373ffffffffffffffffffffffffffffffffffffffff16021790555080600260006101000a81548173ffffffffffffffffffffffffffffffffffffffff021916908373ffffffffffffffffffffffffffffffffffffffff160217905550506103e1806100b96000396000f300606060405260043610610083576000357c0100000000000000000000000000000000000000000000000000000000900463ffffffff16806308551a53146100885780632852b71c146100dd5780634dc415de146100f257806353496a75146101075780637150d8ae14610130578063c5b0e6fb14610185578063cf09e0d0146101ae575b600080fd5b341561009357600080fd5b61009b6101d7565b604051808273ffffffffffffffffffffffffffffffffffffffff1673ffffffffffffffffffffffffffffffffffffffff16815260200191505060405180910390f35b34156100e857600080fd5b6100f06101fd565b005b34156100fd57600080fd5b6101056102bd565b005b341561011257600080fd5b61011a61037d565b6040518082815260200191505060405180910390f35b341561013b57600080fd5b610143610383565b604051808273ffffffffffffffffffffffffffffffffffffffff1673ffffffffffffffffffffffffffffffffffffffff16815260200191505060405180910390f35b341561019057600080fd5b6101986103a9565b6040518082815260200191505060405180910390f35b34156101b957600080fd5b6101c16103af565b6040518082815260200191505060405180910390f35b600260009054906101000a900473ffffffffffffffffffffffffffffffffffffffff1681565b600160009054906101000a900473ffffffffffffffffffffffffffffffffffffffff1673ffffffffffffffffffffffffffffffffffffffff163373ffffffffffffffffffffffffffffffffffffffff16141561025c5760016003819055505b600260009054906101000a900473ffffffffffffffffffffffffffffffffffffffff1673ffffffffffffffffffffffffffffffffffffffff163373ffffffffffffffffffffffffffffffffffffffff1614156102bb5760016004819055505b565b600160009054906101000a900473ffffffffffffffffffffffffffffffffffffffff1673ffffffffffffffffffffffffffffffffffffffff163373ffffffffffffffffffffffffffffffffffffffff16141561031c5760026003819055505b600260009054906101000a900473ffffffffffffffffffffffffffffffffffffffff1673ffffffffffffffffffffffffffffffffffffffff163373ffffffffffffffffffffffffffffffffffffffff16141561037b5760026004819055505b565b60035481565b600160009054906101000a900473ffffffffffffffffffffffffffffffffffffffff1681565b60045481565b600054815600a165627a7a72305820520024b7fe4046b19d45278e428de238734c3472577d8a05910c1b8132d68e3d0029",
  "source": "pragma solidity ^0.4.17;\n\ncontract EscrowFactory {\n    event EscrowCreated(address newAddress);\n\n    function EscrowFactory() public {\n\n    }\n\n    function createEscrow(address seller) public payable {\n        address a = address((new Escrow).value(msg.value)(seller));\n        EscrowCreated(a);\n    }\n}\n\ncontract Escrow {\n    uint public createdAt;\n    address public buyer;\n    address public seller;\n\n    uint public buyerOk; // 0: undecided, 1: accept, 2: reject\n    uint public sellerOk;\n\n\tfunction Escrow(address _seller) public payable {\n        createdAt = now;\n\n        buyer = msg.sender;\n        seller = _seller;\n    }\n\n    function accept() public {\n        if (msg.sender == buyer) {\n            buyerOk = 1;\n        }\n\n        if (msg.sender == seller) {\n            sellerOk = 1;\n        }\n    }\n\n    function reject() public {\n        if (msg.sender == buyer) {\n            buyerOk = 2;\n        }\n\n        if (msg.sender == seller) {\n            sellerOk = 2;\n        }\n    }\n}\n",
  "sourcePath": "/Volumes/Data/Workspace/blockchain/Escrow/contracts/Escrow.sol",
  "compiler": {
    "name": "solc",
    "version": "0.4.19+commit.c4cbbb05.Emscripten.clang"
  },
  "schemaVersion": "2.0.0",
  "updatedAt": "2018-03-21T13:02:43.190Z"
}